:020000040800F2
:10000000D01D0020210200082318000865160008F2
:100010002118000861040008B71E00080000000055
:10002000000000000000000000000000890100083E
:100030006304000800000000CD010008F11B000867
:100040003B0200083B0200083B0200083B0200089C
:100050003B0200083B0200083B0200083B0200088C
:100060003B0200083B0200083B0200083B0200087C
:100070003B0200083B0200083B0200083B0200086C
:100080003B0200083B0200083B0200083B0200085C
:100090003B0200083B0200083B0200083B0200084C
:1000A0003B0200083B0200083B0200083B0200083C
:1000B0003B0200083B0200083B0200083B0200082C
:1000C0003B0200083B0200083B0200083B0200081C
:1000D0003B0200083B0200083B0200083B0200080C
:1000E0003B0200083B0200083B02000800F002F857
:1000F00000F03AF80AA090E8000C82448344AAF188
:100100000107DA4501D100F02FF8AFF2090EBAE885
:100110000F0013F0010F18BFFB1A43F0010318473B
:10012000F42A0000142B0000103A24BF78C878C1CC
:10013000FAD8520724BF30C830C144BF04680C60ED
:10014000704700000023002400250026103A28BF35
:1001500078C1FBD8520728BF30C148BF0B60704739
:100160001FB51FBD10B510BD00F0D6F81146FFF742
:10017000F7FF01F0B1FE00F0F4F803B4FFF7F2FF6F
:1001800003BC00F0FBF80000224B19680868B0E8D7
:10019000F00F80F30988BFF36F8F4FF0000080F3FA
:1001A00011884EF00D0E70470000000006480068F0
:1001B000006880F3088862B661B6BFF34F8FBFF363
:1001C0006F8F00DF00BF00BF08ED00E0EFF3098094
:1001D000BFF36F8F0F4B1A6820E9F00F106008B55E
:1001E0004FF0500080F31188BFF34F8FBFF36F8F34
:1001F00002F010FA4FF0000080F31188BDE80840CB
:1002000019680868B0E8F00F80F30988BFF36F8FB2
:10021000704700BF20000020EFF30580704700000A
:100220000948804709480047FEE7FEE7FEE7FEE78A
:10023000FEE7FEE7FEE7FEE7FEE7FEE704480549C6
:10024000054A064B70470000711C0008ED000008CD
:10025000D0170020D01D0020D0190020D019002078
:1002600010B5203AC0F00B80B1E81850203AA0E851
:100270001850B1E81850A0E81850BFF4F5AF5FEA85
:10028000027C24BFB1E81850A0E8185044BF18C938
:1002900018C0BDE810405FEA827C24BF51F8043BDF
:1002A00040F8043B08BF7047D20728BF31F8023B33
:1002B00048BF11F8012B28BF20F8023B48BF00F8C7
:1002C000012B70474FF0000200B513469446964646
:1002D000203922BFA0E80C50A0E80C50B1F1200159
:1002E000BFF4F7AF090728BFA0E80C5048BF0CC007
:1002F0005DF804EB890028BF40F8042B08BF704765
:1003000048BF20F8022B11F0804F18BF00F8012BD6
:100310007047704770477047754600F02BF8AE463F
:1003200005006946534620F00700854618B020B501
:10033000FFF784FFBDE820404FF000064FF00007B4
:100340004FF000084FF0000B21F00701AC46ACE87D
:10035000C009ACE8C009ACE8C009ACE8C0098D46EA
:10036000704710B50446AFF300802046BDE810404A
:10037000FFF703BF004870476C17002001491820A1
:10038000ABBEFEE7260002007047000070B50446D1
:1003900000688168C943C90717D1816821F001014C
:1003A000816000F0A5FB05460AE000BF00F0A0FB5D
:1003B000401B022804D920688068C043C00706D0CB
:1003C00020688068C043C007F0D0002070BDA06ADC
:1003D00040F01000A062E06A40F00100E0620120FD
:1003E00070BD0000F8B500260446009600688168DC
:1003F000C943C9072DD0816841F0010181601648C9
:1004000016490068B0FBF1F000E0401E00900028A3
:10041000FBD100F06DFB054616E000BF00F068FB65
:10042000401B022810D920688068C043C0070BD049
:10043000A06A40F01000A062E06A40F00100E062B3
:1004400084F824600120F8BD20688068C043C0079C
:10045000E4D10020F8BD00001C00002040420F0045
:10046000FEE7704772B6FEE7F8B50024009490F8F6
:1004700024202546012A12D0012280F824204A682F
:100480001F23072A0DD20668776B521E02EB8202E9
:1004900093409F430B6893401F43776319E002200A
:1004A000F8BD06680D2A0AD2376BD21F02EB820212
:1004B00093409F430B6893401F43376309E0F76AFB
:1004C0000D3A02EB820293409F430B6893401F4317
:1004D000F7620A68072306680A2A0AD3F7680A3A05
:1004E00002EB420293409F438B6893401F43F760A7
:1004F00008E0376902EB420293409F438B689340C8
:100500001F4337610A68102A01D0112A20D1124BEB
:1005100002689A4217D193681B0219D4936843F476
:10052000000393600968102912D10C490C4A09682C
:10053000B1FBF2F101EB8101490000E0491E00919D
:100540000029FBD104E0816A41F02001816201248D
:1005500080F824502046F8BD002401401C000020F3
:1005600040420F000068C06C704700002DE9F04168
:100570004FF0000704003D467ED0A06A002628B94F
:10058000E66284F82460204600F07EF82046FFF7FB
:10059000FDFEA16AC90600D420B1A06A40F0100097
:1005A000A06269E0A16A21F4885141F00201A162D0
:1005B0006268E169237B0A4347EA43010A43A16871
:1005C0004FF48077B94209D0012907D05FF00001CC
:1005D00094F814C0BCF1010F02D00AE03946F7E7E5
:1005E000F3B1A36A43F02003A362E36A43F001037B
:1005F000E3622368D3F804C02CF4694C4CEA010C84
:10060000C3F804C021688B68DFF870C003EA0C03EC
:1006100013438B60A168B9420BD0012909D00CE0CB
:10062000DFF85CC0A3690CEB43330B4343F4006178
:10063000DFE7218A0D05A5F580152168CB6A23F433
:1006400070032B43CB62216889680E4B194091429D
:1006500008D1E662A16A21F0020141F00101A16224
:10066000BDE8F081A06A20F0020040F01000A06216
:10067000E06A40F00100E0620120F1E7FDF7E1FFF0
:1006800000E0FFFFFE0E1FFF00B585B000210091C6
:1006900001910291039100680E49884218D10E48D9
:1006A000816941F400718161816901F400710491F3
:1006B000816941F0040181618069694600F00400AC
:1006C0000490B820009003200190044800F020F925
:1006D00005B000BD002401400010024000080140A8
:1006E0002DE9F84300270D460446009700F000FA74
:1006F000804620688168C90508D5A06A40F02000BE
:10070000A06284F824700120BDE8F8834168C9051F
:1007100003D4C06A10F4700F2AD0022000F07EFAD1
:100720003B490968B1FBF0F62068036939490B427F
:100730004FEA61014FEAA1121FD1C3684FEA611C61
:1007400013EA0C0F19D103690B4225D1C06810427E
:1007500022D1142023E0681C0AD02DB100F0C8F982
:10076000A0EB0800A84203D920680068800725D5BF
:10077000206800688007EED52DE003690B4202D1A6
:10078000C168114206D0026923490A4206D1C068F5
:10079000084203D1542002E0292000E0FC20464317
:1007A000009816E0681C11D02DB100F0A1F9A0EB63
:1007B0000800A8420AD90098B04207D2A06A40F0C7
:1007C0000400A06284F8247003209DE70098401C78
:1007D0000090B042E6D321686FF012000860A06A72
:1007E00040F40070A06220688068C0F3424007288F
:1007F0000CD1207B50B9A06A20F48070A062A06A5E
:10080000C00403D4A06A40F00100A06200207BE78E
:100810001C000020244992244992240070B504460B
:1008200090F8240001280DD0012084F824002046EF
:10083000FFF7D8FD02004FF0000005D084F8240037
:10084000104670BD022070BDA16A40F20123994399
:1008500041F48071A1621F4D23681F49AB4218D13A
:100860000E6816F4702F14D0A66A46F48016A6629D
:100870000E68760505D5A66A26F4005646F480561D
:10088000A662A66AF6040AD5E66A26F00606E662BD
:1008900006E0A66A26F48016A6625E68E9E7E062D2
:1008A00084F824006FF00200186020688368C3F3A6
:1008B0004243072B05D1A84208D1096811F4702FD3
:1008C00004D0816841F480118160B9E7816841F406
:1008D000A001F9E7002801400424014010B50446B6
:1008E00090F82400012807D0012084F82400204635
:1008F000FFF74CFD10B107E0022010BDA16A21F402
:10090000885141F00101A162002184F8241010BD3A
:100910002DE9F84FDFF8B8910024A9F1040B234624
:100920000F2709F1040AABF1040EC9E00125A54027
:100930002A40AA427DD1674ED1F804C0ACEB06082C
:10094000B44532D014DCBCF1030F3AD009DCBCF161
:10095000000F2AD0BCF1010F1CD0BCF1020F31D125
:100960001DE0BCF1110F17D0BCF1120F2AD119E014
:10097000B8F5881F19D006DCB8F5803F15D0B8F55A
:10098000801F1FD111E0B8F5001F0ED0B8F5041F6D
:1009900018D10AE0CB6815E0CB681B1D12E0CB68CC
:1009A00008330FE0CB680C330CE08B682BB1012BC4
:1009B0004FF0080303D0456104E0042302E0056121
:1009C00000E00023FF2A01D8064601E000F10406FA
:1009D0004FEA840501D9A5F12005D6F8008007FA71
:1009E00005FC28EA0C0803FA05F548EA0508C6F8EC
:1009F00000804D68ED0062D5374DAE6946F00106C6
:100A0000AE61AD6924F0030605F001050095334D94
:100A100006EB050CDCF80850A607360F07FA06F8B7
:100A200025EA0805DFF8B880404503D14FF00008FB
:100A300017E044E0DFF8AC80404502D14FF00108F8
:100A40000FE0DFF8A480404502D14FF0020808E033
:100A5000DFF89880404502D14FF0030801E04FF0E5
:100A6000040808FA06F848EA0508CCF808804D683A
:100A7000D9F80060ED024D4601D5164300E09643DB
:100A80002E604D68DAF80060AD02554601D5164378
:100A900000E096432E604D68DBF80060AD035D46D4
:100AA00001D5164300E096432E604D68DEF80060E5
:100AB000ED03754601D5164300E096432E60641C95
:100AC0000D682A46E5407FF431AFBDE8F88F00009D
:100AD0000804014000001110001002400000014015
:100AE00000080140000C01400010014000140140CA
:100AF00001488068704700001000002002488168AB
:100B0000027811448160704710000020074810B53A
:100B1000016841F010010160032000F06DF80F2022
:100B200000F006F800F024F8002010BD002002407C
:100B300070B50D4D04464FF47A712878B1FBF0F092
:100B40000A490968B1FBF0F000F08CFB48B9102CA1
:100B500007D200222146501E00F02EF800206C60C3
:100B600070BD012070BD0000100000201C0000209E
:100B70000F4808B5816941F001018161816901F087
:100B800001010091C16941F08051C161C069002239
:100B900000F0805000900F21901E00F00DF80548E5
:100BA000416821F0E06141F00071416008BD000042
:100BB0000010024000000140F0B40E4B1B680C46D0
:100BC000C3F30223C3F10705042D00D90425191D21
:100BD000072901D2002300E0DB1E012606FA05F1F9
:100BE000491E214099409E40761E16403143F0BC7C
:100BF00001F062B90CED00E0064900F00702086858
:100C00004FF6FF03184040EA0220034A10430860F1
:100C1000704700000CED00E00000FA0510B5014639
:100C20000020234C012922D0022939D010291DD1BE
:100C300061682268D20119D51E48C1F38342C903F5
:100C4000805C0AD561681B4AC1F34041921E515C29
:100C5000194AB2FBF1F1484301E018494843616881
:100C6000490203D440000321B0FBF1F010BD226A19
:100C7000C2F30121012903D1920701D5C80310BD98
:100C8000022905D1626A920702D549F6404010BD9B
:100C90000329FCD121688903F9D54FF2244010BD06
:100CA00000F01AF96168C1F38131491C4900DBE7A2
:100CB00000100240C82B000800127A0000093D0015
:100CC0002DE9F84305460078354CC00754D0E0695B
:100CD0000026C00008D4E06940F08050E061E0697F
:100CE000012600F0805000902E480168C90512D4FA
:100CF0000168804641F480710160FFF7F9FE074604
:100D000005E000BFFFF7F4FEC01B642823D8D8F825
:100D10000000C005F6D5206A10F4407021D0A988E3
:100D200001F4407181421CD0206A1F49012220F445
:100D300040700A6000220A602062C00711D0FFF7ED
:100D4000D7FE074641F2883808E000BFFFF7D0FE23
:100D5000C11B414502D90320BDE8F883206A800702
:100D6000F4D5206A696820F44070084320621EB1FF
:100D7000E06920F08050E0612878800705D5606840
:100D8000A96820F44040084360602878C00605D573
:100D90006068E96820F48000084360600020DBE7B9
:100DA0000010024000700040400442422DE9F0472C
:100DB0000F46050061D0434E306800F00700B8428E
:100DC00009D2306820F0070038433060306800F006
:100DD0000700B84251D128683B4C810712D5400723
:100DE00003D5606840F4E06060602878000703D5B0
:100DF000606840F4605060606068A96820F0F000AE
:100E0000084360602878C00728D06868012810D09F
:100E10002168022810D0890700292EDA616821F0A4
:100E2000030101436160FFF763FE804641F28839A8
:100E30000DE021688903EFE78901EDE7FFF758FE30
:100E4000A0EB0801494502D90320BDE8F08760689E
:100E5000696800F00C00B0EB810FEFD1306800F052
:100E60000700B8420BD9306820F0070038433060E3
:100E7000306800F00700B84201D00120E5E728788B
:100E8000400705D56068E96820F4E06008436060C9
:100E90002878000706D56068296920F4605040EA88
:100EA000C100606000F028F86168084AC1F30311CE
:100EB000515CC8400649086006480068FFF738FEE4
:100EC0000020C2E70020024000100240D82B00089A
:100ED0001C000020140000200448054900684968EF
:100EE000044AC1F3C221515CC84070471C00002075
:100EF00000100240E82B00080E4A51680E4801F02D
:100F00000C03042B11D0082B0FD10C48C1F38343E1
:100F1000C903C05C0AD55168084AC1F34041921E1A
:100F2000515C054A5043B0FBF1F070470449484317
:100F3000704700000010024000127A00B62B000833
:100F400000093D002DE9F84F040070D02078C04D15
:100F5000C00749D06868C0F38100012807D06868DD
:100F6000C0F38100022809D16868C00306D528684B
:100F7000800339D560680028E7D035E06068B0F5B7
:100F8000803F0BD010B1B0F5A02F11D0286820F40D
:100F900080302860286820F4802002E0286840F42F
:100FA00080302860606890B1FFF7A2FD06460AE035
:100FB000286840F480202860F0E700BFFFF798FD24
:100FC000801B642873D828688003F7D50CE0FFF7EE
:100FD0008FFD064605E000BFFFF78AFD801B6428F1
:100FE000F0D828688003F7D420789A4E80074FF015
:100FF00001094FF0000839D5686810F00C0F07D0D0
:101000006868C0F38100022809D16868C00306D46B
:101010002868800714D52069012808D110E02069CC
:10102000B0B1C6F80090FFF763FD074605E00AE19E
:10103000FFF75EFDC01B0228C4D828688007F7D5DB
:101040002868616920F0F80040EAC10028600DE0DE
:10105000C6F80080FFF74CFD074604E0FFF748FDA7
:10106000C01B022823D828688007F7D420780007FF
:101070002CD57948A169D9B1C0F80090FFF738FDA7
:10108000074604E0FFF734FDC01B02280FD8686A4A
:101090008007F7D571484FF4FA510068B0FBF1F0C2
:1010A000009000BF0098411E0091FAD20EE080E04F
:1010B000C0F80080FFF71CFD074604E0FFF718FDAD
:1010C000C01B022875D8686A8007F7D420784007CB
:1010D00060D5E8690027C00008D4E86940F0805076
:1010E000E861E869012700F0805000905C480168E1
:1010F000C90513D40168834641F480710160FFF78C
:10110000F7FC824606E000BFFFF7F2FCA0EB0A0006
:1011100064284ED8DBF80000C005F5D5E06801284A
:101120000AD008B1052813D0286A20F001002862EF
:10113000286A20F0040002E0286A40F001002862DA
:10114000E06841F2883B98B1FFF7D2FC82460BE0A1
:10115000286A40F004002862EEE700BFFFF7C8FCF1
:10116000A0EB0A0159455AD8286A8007F6D50CE049
:10117000FFF7BEFC824605E0FFF7BAFCA0EB0A01D0
:1011800059454CD8286A8007F6D41FB1E86920F089
:101190008050E861E06988B36968C1F38101022980
:1011A00044D00228C6F8608004D0FFF7A1FC0446B2
:1011B00038E034E0FFF79CFC074604E0FFF798FCBA
:1011C000C01B02282BD828688001F7D4206AB0F50C
:1011D000803F05D16868A16820F40030084368604A
:1011E000D4E908010843696821F474110843686070
:1011F000C6F86090FFF77CFC044606E025E000BFDF
:10120000FFF776FC001B022809D828688001F7D573
:101210001BE000BFFFF76CFC001B022802D9032073
:10122000BDE8F88F28688001F4D40EE00128F7D0DB
:101230006868226A00F48031914204D1616A00F446
:101240007010884201D00120EAE70020E8E70000A2
:101250000010024000004242800442421C00002074
:101260000070004010B5401EB0F1807F01D3012016
:1012700010BD4FF0E02460610F21601700F01CFEEC
:101280000020A06107202061002010BD70B590F8FB
:101290003C20012A26D0012480F83C40022280F81C
:1012A0003D2003685A689D6822F070060A68324340
:1012B0005A600D4B02689A4208D0B2F1804F05D0B7
:1012C0000A4B9A4202D00A4B9A4204D1496825F04F
:1012D00080031943916080F83D40002180F83C1064
:1012E000084670BD022070BD002C01400004004083
:1012F0000008004010B5040003D094F83D0010B180
:1013000007E0012010BD002084F83C00204600F0DA
:101310001FF8022084F83D00211D206800F0AAFC7F
:10132000012084F8460084F83E0084F83F0084F8E9
:10133000400084F8410084F8420084F8430084F8B7
:10134000440084F8450084F83D00002010BD0000F2
:1013500008B500680649884208D10648C16941F0CD
:101360000201C161C06900F00200009008BD0000E8
:10137000000400400010024070B5044690F83C00A4
:101380000025012817D0012684F83C60022084F84B
:101390003D002068826822F0770222F47F4282605A
:1013A0000868502838D00DDC20284FD005DC90B3D9
:1013B000102811D14AE0022070BD302846D04028C4
:1013C0000AD13BE060282FD070280DD0B0F5805FA7
:1013D00003D0B0F5005F12D0012584F83D600020F5
:1013E00084F83C00284670BDCB68D1E90121206813
:1013F00000F089FC2068816841F0770109E0CB6842
:10140000D1E90121206800F07EFC2068816841F468
:1014100080418160E1E719E0CA684968206800F00E
:1014200027FD5021206806E0CA684968206800F05E
:1014300030FD6021206800F070FCCEE7CA68496882
:10144000206800F015FD40212068F4E7226801467D
:101450001046F0E700B585B000210091019102919E
:10146000039100680B49884211D10B48816941F012
:10147000080181618069694600F00800049003203A
:1014800000900220019003900448FFF741FA05B054
:1014900000BD00000004004000100240000C0140AC
:1014A00070B5044690F83C0000260D4601280FD088
:1014B000012084F83C006AB1042A1DD0082A2FD0EC
:1014C0000C2A3FD00126002084F83C00304670BD35
:1014D000022070BD206800F029FC2068816941F07D
:1014E000080181612068816921F00401816120681F
:1014F00081692A69114311E0206800F03FFC2068EF
:10150000816941F4006181612068816921F4806111
:101510008161206881692A6941EA02218161D2E7FB
:10152000206800F057FC2068C16941F00801C161E2
:101530002068C16921F00401C1612068C1692A697C
:10154000114311E0206800F071FC2068C16941F48A
:101550000061C1612068C16921F48061C1612068B6
:10156000C1692A6941EA0221C161ACE710B50400F2
:1015700003D094F83D0010B107E0012010BD002019
:1015800084F83C00204600F01EF8022084F83D005C
:10159000211D206800F06EFB012084F8460084F8CD
:1015A0003E0084F83F0084F8400084F8410084F84D
:1015B000420084F8430084F8440084F8450084F82D
:1015C0003D00002010BD704710B50446022249B10D
:1015D00004290ED0082913D094F84100012816D010
:1015E000012010BD94F83E000128F9D184F83E2076
:1015F0000FE094F83F000128F2D184F83F2008E082
:1016000094F840000128EBD184F8402001E084F8F0
:1016100041200122206800F069FB0F4920688842C0
:1016200003D1426C42F4004242642068884208D0F0
:10163000B0F1804F05D00949884202D0084988425C
:1016400004D1816801F00701062903D0016841F047
:1016500001010160002010BD002C01400004004089
:1016600000080040FEE70000FEB500242148009479
:1016700001941F4902940160891581600473012659
:101680000675042505614FF460214460C0E90661D8
:10169000FEF76CFF08B1FEF7E5FE03270097CDE9E2
:1016A000016469461348FEF7DFFE08B1FEF7DAFE73
:1016B0000220CDE9005069460E48FEF7D5FE08B17C
:1016C000FEF7D0FE0520CDE9000769460948FEF780
:1016D000CBFE08B1FEF7C6FE0720CDE9000569463E
:1016E0000448FEF7C1FE002801D0FEF7BBFEFEBD98
:1016F00000240140040A002010B596B01C221149B4
:101700006846FEF7ADFD0021684600F006FC0E4C71
:101710000C491C2260601C3107A8FEF7A1FD0021C6
:1017200007A800F0FAFB0749A0601C2238310EA878
:10173000FEF796FD00210EA800F0EFFBE06016B06A
:1017400010BD0000602B000800000020094808B50B
:10175000816941F004018161816901F00401009116
:10176000816941F008018161806900F00800009002
:1017700008BD00000010024010B58EB00024079490
:10178000089409940A940B941C2168460C94FEF763
:1017900099FD2248204901600721C0E9011440F267
:1017A000E731C0E903148461FFF7A4FD08B1FEF737
:1017B00059FE4FF48050079007A91848FFF7DCFD49
:1017C00008B1FEF74FFE1548FFF7D0FE08B1FEF74F
:1017D00049FE0B940BA911480C94FFF757FD08B173
:1017E000FEF740FE6020CDE900040294082269461D
:1017F0000A480494FFF754FE08B1FEF733FE0C22AA
:1018000069460648FFF74CFE08B1FEF72BFE034879
:10181000FFF720FE0EB010BD00040040340A002087
:10182000FEE7FEE7012000F06CFBFBE78F4D4FF475
:10183000486B4FF0010A4FF000088C4C00268C4F8B
:101840004FF6FF7918348B48FEF7E8FF4946894880
:10185000FEF746FF8748FEF785FE386044F826000D
:10186000761C042EEFDB8348FFF738F8206801F080
:10187000A3F8814E814F32463B4601F0B1F802D2C7
:10188000C5F8008038E0206801F096F87C4A7D4B6E
:1018900001F0A6F802D2C5F800A02DE02068584556
:1018A00001D2022027E001F087F8774A774B01F058
:1018B00097F801D203201EE0206801F07DF8744AF9
:1018C000744B01F08DF801D2042014E0206801F07F
:1018D00073F84FF05F394A466F4B01F081F801D23F
:1018E000052008E0206801F067F84A466A4B01F0DD
:1018F00001F901D206202860606801F05DF83246E7
:101900003B4601F06DF802D2C5F8048038E060680B
:1019100001F052F85A4A5B4B01F062F802D2C5F866
:1019200004A02DE06068584501D2022027E001F0B4
:1019300043F8554A554B01F053F801D203201EE0FD
:10194000606801F039F8524A524B01F049F801D26F
:10195000042014E0606801F02FF84FF05F394A4628
:101960004D4B01F03DF801D2052008E0606801F020
:1019700023F84A46484B01F0BDF801D206206860C2
:10198000A06801F019F832463B4601F029F802D26E
:1019900040F6B8303DE0A06801F00EF8384A394B07
:1019A00001F01EF802D240F6BB3032E0A068584584
:1019B00002D240F6BF302CE000F0FEFF324A334B3B
:1019C00001F00EF802D240F6C33022E0A06800F029
:1019D000F3FF2F4A2F4B01F003F802D240F6C73035
:1019E00017E0A06800F0E8FF2B4F4FF05F3632465B
:1019F0003B4600F0F5FF02D240F6CB3009E0A0688C
:101A000000F0DAFF32463B4601F074F802D240F6AD
:101A1000CE30E860E06800F0CFFF1D4A1D4B00F0BB
:101A2000DFFF02D285F808A01BE0A06800F0C4FF29
:101A3000194F4FF05F3632463B4600F0D1FF02D2DD
:101A400085F808800DE0A06800F0B6FF32463B46FE
:101A500001F050F805D202202872C5F81480C5F8AC
:101A600010804FF47A7000F04CFAE6E6880000200F
:101A700000000020040A0020F2593798229FA54058
:101A800073EDC05C3B30A740040D27755F1EAB4073
:101A900013DA4B682FA1AD405F5FAF400821524879
:101AA000FFF792FD0C215048FFF78EFD4E4D4F4C35
:101AB00040F2411740F2F7184FF42F7940F2193AEB
:101AC00040F2CA3B0026207A20B1012837D00228F4
:101AD0003AD052E02068012817D0022818D00328F5
:101AE00018D0042818D0052818D02868C663606864
:101AF000012817D0022818D0032818D0042818D09D
:101B0000052818D02868066437E02868C763EEE720
:101B1000404604E0484602E0504600E05846296846
:101B2000C863E4E72868076427E0404604E04846C5
:101B300002E0504600E05846296808641DE0286825
:101B400006642868C66318E02069D0B1606801287F
:101B50003DD002283ED003283ED004283ED00528A0
:101B60003ED0286806642868C6636069962801DD4F
:101B7000266166616069401C6061142000F0C1F953
:101B8000A1E72068012815D0022816D0032816D016
:101B9000042816D0052816D02868C663286806646D
:101BA0006069962802DD0120C4E904066069401CD2
:101BB0006061DBE72868C763F0E7404604E0484619
:101BC00002E0504600E058462968C863E6E7286806
:101BD0000764C8E7404604E0484602E0504600E09B
:101BE000584629680864BEE7340A002088000020AF
:101BF00010B5FEF783FF00F0FDFD012803D0BDE81E
:101C0000104000F089BD10BD30B593B02821684662
:101C1000FEF758FB14210AA8FEF754FB002401200C
:101C20000F940225049000951020119405901094B3
:101C3000129407946846FFF785F908B172B6FEE77B
:101C40000F20CDE90A040C940D9400210AA80E94EB
:101C5000FFF7ACF808B172B6FEE70FA80F95119424
:101C6000FFF72EF8002801D072B6FEE713B030BDA2
:101C700070470000F0B50268194B1A4C1A4D4FF02E
:101C80008047984205D0B84203D0A04201D0A84274
:101C900003D122F070064A683243984205D0B84218
:101CA00003D0A04201D0A84203D122F44074CA68F4
:101CB00022434C6922F08002224302608A68C26299
:101CC0000A688262984201D1096901630121416178
:101CD0000169C90703D0016921F001010161F0BD6B
:101CE000002C0140000400400008004010B501F045
:101CF0001F030121046A99408C430462016A9A40DF
:101D00001143016210BD10B5846842EA032224F435
:101D10007F440A432243826010BD826822F0700231
:101D20000A4342F0070181607047000030B5036A42
:101D3000026A22F0010202624268846924F073059B
:101D40000C682C4323F002058B682B430A4DA842F4
:101D50000BD123F00805CB6822F440722B434D6968
:101D600023F0040315438A692A4342608461496869
:101D70004163036230BD0000002C014030B5026AAF
:101D8000036A23F010030362436884690D6824F436
:101D9000E64444EA05248D6822F0200242EA051256
:101DA0000B4DA8420ED1CD6822F0800242EA051206
:101DB0004D6923F4406343EA85038D6922F04002B4
:101DC00043EA85034360846149688163026230BDF0
:101DD000002C014030B5036A026A22F4807202626C
:101DE0004268C46923F4007324F073050C682C4323
:101DF0008D6843EA05230C4DA8420ED1CD6823F42B
:101E0000006343EA05234D6922F4405242EA051279
:101E10008D6923F4806342EA05124260C461496817
:101E2000C163036230BD0000002C014030B5046A7C
:101E3000026A22F4805202624268C3690D6823F488
:101E4000E64343EA05238D6824F4005444EA05344C
:101E5000064DA84204D14D6922F4804242EA85121F
:101E60004260C36149680164046230BD002C0140D6
:101E700010B5036A046A24F001040462846924F042
:101E8000F00444EA021423F00A020A438461026265
:101E900010BD10B5036A046A24F01004046284695A
:101EA00023F0A00324F4704444EA023243EA01110F
:101EB0008261016210BDFEE70907090E002804DBFC
:101EC00000F1E02080F80014704700F00F0000F1EE
:101ED000E02080F8141D7047FEF718FEFFF794FE0F
:101EE000FFF734FCFFF7C0FBFFF746FCFFF704FCED
:101EF00000F00EF8FEE701460020842900D0C81C3F
:101F0000704710B500B9012000F020FB002010BD83
:101F100010B500F041FB002010BD7FB50D46044612
:101F20004169B0F9080081B1A16971B1FFF7E3FF20
:101F3000D4E905128DE80700D4E900102B46226988
:101F400000F02DFC039004B070BDFFF7D4FF03A98F
:101F5000CDE90001208A2B4682B2D4E9001000F0BE
:101F6000F1FB012801D00020EDE70398EBE700002A
:101F70002DE9F041184C0F460546E6682068001D23
:101F800000F01CFA38B9206890F82C100120884025
:101F9000216981432161681C07D137B12168BDE8FF
:101FA000F0410E48091D00F04DBA20683544B54295
:101FB0004560216805D2A06BBDE8F041091D00F025
:101FC00029BA606B091D00F025FAA06A854200D28B
:101FD000A562BDE8F081000020000020580B002021
:101FE0002DE9F041054600F039FA2E4CA068401C5E
:101FF000A06020682C4F10B1606940B32DE02560CF
:10200000A068012829D1002606EB860007EB800096
:1020100000F0F2F9761C072EF6D323488C3000F03E
:10202000EBF92148A03000F0E7F91F48B43000F088
:10203000E3F91D48C83000F0DFF91B48DC3000F040
:10204000DBF919488C3060631430A06305E0206828
:10205000E96AC06A884200D82560606A401C6062F4
:10206000E96A0120226988401043206101EB810068
:1020700007EB8000291D00F0E5F900F00FFA606918
:1020800000280CD02068E96AC06A884207D2074954
:102090004FF080500860BFF34F8FBFF36F8FBDE8E4
:1020A000F0810000200000207C0A002004ED00E008
:1020B00010B5044690F8510058B101280CD0022800
:1020C0000FD0502080F31188BFF34F8FBFF36F8F75
:1020D000FEE7206B00F0F6F92046BDE8104000F066
:1020E000F1B910BD10484FF44061420706D0C01D41
:1020F0000D4920F00700411AC1F540610B4A002349
:102100000144C2E900030839183A21F007011160BF
:102110004B600B600B1AC0E9001393604FF0004056
:1021200053605061704700006C0B00207400002069
:10213000144E154CA6F1C8074FF08058DFF84C90AC
:1021400012E000BF00F08AF9F068C568281D00F0B1
:1021500035F9A068401EA0606068401E606000F015
:102160009DF92846FFF7A4FF60680028EAD1386887
:102170000128F9D9C9F80080BFF34F8FBFF36F8FE3
:10218000F2E70000440B00202000002004ED00E0F6
:102190002DE9F0479A46DDE9098481466FF0030393
:1021A000206B03EB82021044089E20F0070778079B
:1021B00007D0502080F31188BFF34F8FBFF36F8F8C
:1021C000FEE7002561B1002023180A5C83F8342063
:1021D0000A5C12B1401C1028F6D384F8435001E089
:1021E00084F83450072E00D30626E662C4E9116550
:1021F000201D00F00CF904F1180000F008F924612A
:10220000C6F107006462A061E56484F8505052464C
:102210004946384600F0C0F82060B8F1000F01D000
:10222000C8F80040BDE8F08730B5114900E011461C
:102230000A688242FBD34B685C18844203D1406831
:1022400018444860084643681C18944209D1084C59
:10225000183C2468A24209D052681A4442600A68B5
:1022600012680260814200D0086030BD0460F9E766
:10227000740000200648416B096829B1416BC968A8
:10228000C9684968816270474FF0FF31FAE7000082
:102290002000002008484068401C4FF0500080F3A8
:1022A000118804D0BFF34F8FBFF36F8FFEE7BFF3EA
:1022B0004F8FBFF36F8FFEE77C0000202DE9F041C8
:1022C0000546002700F09EF9324E306808B9FFF746
:1022D00009FF706905424ED1C5B3083568070ED0B5
:1022E00005F00700C0F108000544680707D050203A
:1022F00080F31188BFF34F8FBFF36F8FFEE72DB3CD
:102300007068854237D82348183001460C6801E0D0
:1023100020460C466168A94202D221680029F7D103
:1023200031688C4227D007682168016060680837EF
:10233000411B10290FD96019420708D0502080F3A3
:102340001188BFF34F8FBFF36F8FFEE713E041603B
:102350006560FFF769FF61687068401A7060B26875
:10236000904200D2B060706901430020C4E90001CE
:10237000F068401CF06000F0B1FA780707D05020F8
:1023800080F31188BFF34F8FBFF36F8FFEE738469E
:10239000BDE8F0815C00002010B5031F4FF0807491
:1023A0001C601B1F21F001011960191F024B0B60FB
:1023B000143940380A6010BD95220008D0E9013276
:1023C00001699A60D0E901235A604A68824201D1CA
:1023D00082684A60002202610868401E086008683E
:1023E00070470000034B036003F154000860802035
:1023F00010607047B400002000F108014FF0FF3278
:10240000C0E90112C1600161002101607047002133
:102410000161704730B50B685A1C02D000F1080208
:1024200002E0026904E02246546825689D42FAD918
:1024300053684B6099608A60516008610168491C6B
:10244000016030BD42684A6093688B609368596050
:10245000916008610168491C01607047502080F359
:102460001188BFF34F8FBFF36F8F0A494868401C34
:10247000486001280CD10848006810F0FF0F07D011
:10248000502080F31188BFF34F8FBFF36F8FFEE7AB
:10249000704700007C00002004ED00E00849486817
:1024A00028B1401E486001D180F311887047502048
:1024B00080F31188BFF34F8FBFF36F8FFEE70000EB
:1024C0007C00002070B500282AD0164DA0F1080429
:1024D00060686969084207D1502080F31188BFF312
:1024E0004F8FBFF36F8FFEE722683AB1502080F321
:1024F0001188BFF34F8FBFF36F8FFEE78843606093
:1025000000F080F860686968084468602046FFF75A
:102510008BFE2869401C2861BDE8704000F0DEB9E0
:1025200070BD00005C0000204FF0E0200021016140
:10253000816105494FF47A720968B1FBF2F1491ED5
:1025400041610721016170471C00002010B50200A5
:1025500014D00F48006B38B1502080F31188BFF3BE
:102560004F8FBFF36F8FFEE700F04CF8002110464D
:10257000FFF7FEFC00F0B2F9002807D105494FF043
:1025800080500860BFF34F8FBFF36F8F10BD000006
:102590002000002004ED00E010B586B00024039474
:1025A00005AA04A903A80494FFF71CFFDDE90301B1
:1025B0000094CDE9011000230EA11048059A00F007
:1025C000EEF80F490028C86211D0502080F311881E
:1025D000BFF34F8FBFF36F8F4FF0FF308862012042
:1025E0004861CC6006B0BDE8104000F041B806B0CC
:1025F00010BD000049444C45000000003121000896
:10260000200000200248016B491C01637047000054
:10261000200000201448016B11B10121C1617047F5
:102620000021C1610169B1FA81F1C1F11F0101EB22
:1026300081020E4951F822306BB101EB820101F1A8
:1026400008034A6852684A609A4201D152684A6057
:10265000D16801607047502080F31188BFF34F8F1D
:10266000BFF36F8FFEE70000200000207C0A0020EF
:102670001CB5264908780190FF20087008788DF86D
:1026800000009DF800009DF8002000F0F00090424E
:1026900007D0502080F31188BFF34F8FBFF36F8FA7
:1026A000FEE79DF800001A4C00F050002070072053
:1026B000A06005E09DF8002052008DF80020401E2B
:1026C0009DF800201206F5D4A060032807D0502002
:1026D00080F31188BFF34F8FBFF36F8FFEE74FF486
:1026E0004070A060019808700A48016841F47001C8
:1026F0000160016841F070410160FFF715FF0020A3
:102700006060FDF753FD00201CBD000000E400E008
:102710007C00002020ED00E010B5502080F31188EF
:10272000BFF34F8FBFF36F8F00F072F818B10449F9
:102730004FF080500860002080F3118810BD000029
:1027400004ED00E02DE9FF5F8346DDE90E87994641
:1027500016468A469000FFF7B1FD05001CD05420B4
:10276000FFF7ACFD040014D00020256384F851006D
:10277000CDE90240CDE900874B46324651465846E6
:10278000FFF706FD2046FFF72BFC012004B0BDE853
:10279000F09F2846FFF796FE4FF0FF30F6E7F0B5C2
:1027A00085B0DDE90B640A9DA6B1DCB15427009722
:1027B0002663022684F85160002604AFCDE9024664
:1027C000CDE90057FFF7E4FC2046FFF709FC049829
:1027D00005B0F0BD502080F31188BFF34F8FBFF3D9
:1027E0006F8FFEE7502080F31188BFF34F8FBFF348
:1027F0006F8FFEE70548416919B1006B18B10020E1
:102800007047012070470220704700002000002020
:102810002DE9F0412F4C0026206B28B1A069401C07
:10282000A0613046BDE8F081E5686D1CE56013D11C
:10283000606B006838B1502080F31188BFF34F8F70
:10284000BFF36F8FFEE7606BA16B6163A063206ACB
:10285000401C2062FFF70EFDA06ADFF87C808542F5
:1028600009D3606B0068A0B1606BC068C768786806
:10287000854211D2A0622068C06A00EB800158F83E
:102880002100012800D90126E0690028C9D00126CD
:10289000C7E74FF0FF30EDE7381DFFF78FFDB86A4F
:1028A00018B107F11800FFF789FDF96A01202269C4
:1028B00088401043206101EB810108EB8100391D44
:1028C000FFF7C0FDF86A2168C96A8842C9D30126AA
:1028D000C7E70000200000207C0A00202DE9F04717
:1028E0002C4D00242746286B38B1FFF7B7FD286B25
:1028F000401E2863286B40B146E0502080F31188C9
:10290000BFF34F8FBFF36F8FFEE7A968224E012000
:10291000D1B3A6F1B40980463068E8B1F068C46864
:1029200004F11800FFF74AFD201DFFF747FDE06A9C
:102930002A6908FA00F11143296100EB800109EBD3
:102940008100211DFFF77EFDE06A2968C96A88427F
:10295000E2D3C5F81C80DFE70CB1FFF78BFCAC6954
:1029600044B14646FFF754FF00B1EE61641EF9D151
:102970000020A861E86938B10849012738070860D4
:10298000BFF34F8FBFF36F8FFFF788FD3846BDE869
:10299000F087000020000020300B002004ED00E054
:1029A000491058BFC1F140415B1058BFC3F14043CB
:1029B0008B42EFF300807047B0FA80F310FA03F116
:1029C0000AD0C3F11D0303F580634FEA41504FEA7B
:1029D000035202EBD12170474FF000007047000016
:1029E00051EA030C17D41CF5801F58BFBCF5801F9B
:1029F00000F10680994218BF704708BF90427047A7
:102A000007D711F5801F58BF13F5801F19D49942BD
:102A10007047894270471CF5801F08D5BCF5801FA0
:102A2000F7D58B4218BF704708BF824270474FF4FA
:102A3000001C1CEB410F38BF1CEB430F01D28B4233
:102A4000704770B500F008F8922449004FF000512B
:102A50004FF08053FFF7A4BF0EF1020E2EF0030ECD
:102A60005EF8046B364205D4012A43EB030515F5E5
:102A7000001F12D8012841EB010C1CF5001F0CD8D7
:102A80000ED14FEAD17C15F5001F0CEB4C0C0CF16C
:102A9000020C08BF4CEBD37C04E04FF0080C01E0C3
:102AA0004FEAD37C0CEB4C0526FA05F606F0070638
:102AB000B6F1040C06D20EEB860CBDE870404CF06B
:102AC000010C6047DFE80CF0090B02024FF00041F7
:102AD0004FF00000A1F5002170BD194610460128F5
:102AE00051EB010418BFD4F5001484BF002001F09D
:102AF000004170BD53EA010C17D41CF5801F58BF6C
:102B0000BCF5801F00F106808B4218BF704708BFDC
:102B10008242704707D713F5801F58BF11F5801FF9
:102B200019D48B4270479B4270471CF5801F08D513
:102B3000BCF5801FF7D5994218BF704708BF904277
:102B400070474FF4001C1CEB430F38BF1CEB410FC8
:102B500001D2994270470FB40CBC03BCFFF771BFA0
:102B6000F02B0008251800080000000000000000FD
:102B7000800000000803002008050020FC2B00084E
:102B80002D18000803000000000000008000000075
:102B90005C0500205C070020082C00089D1A000836
:102BA000000000000000000080000000B0070020CE
:102BB000B0090020010202030405060708090A0BF8
:102BC0000C0D0E0F10100102020304050607080980
:102BD0000A0B0C0D0E0F101000000000000000008A
:102BE00001020304060708090000000001020304B3
:102BF00064656661756C745461736B00627574749E
:102C00006F6E5F7461736B006D6F746F725F746170
:102C1000736B0000342C00080000002088000000C6
:102C200028010008BC2C000888000020481D000076
:102C30004401000800000000000000000000000047
:102C40000000000001000000100000000000000073
:102C500000127A00000000000000000000000000E8
:102C60000000000000000000000000000000000064
:102C70000000000000000000000000000000000054
:102C80000000000000000000000000000000000044
:102C90000000000000000000000000000000000034
:102CA0000000000000000000000000000000000024
:0C2CB00000000000AAAAAAAA0000000070
:04000005080000ED02
:00000001FF
